:100000000C943D000C9465000C9465000C94650004
:100010000C9465000C9465000C9465000C946500CC
:100020000C9465000C9465000C9465000C946500BC
:100030000C9465000C9465000C9465000C946500AC
:100040000C9465000C94C1020C949B020C94650006
:100050000C9465000C9465000C9465000C9465008C
:100060000C9465000C9473020C9465000C9465006C
:100070000C9465000C946500920311241FBECFEF11
:10008000CDBFDFE3DEBF18E3A0E0B8E3ECE5F8E0C6
:1000900002C005900D92A230B107D9F728E3A2E083
:1000A000B8E301C01D92A13AB207E1F710E0CDE339
:1000B000D0E004C02197FE010E94DC03CC33D107BD
:1000C000C9F70E94EF020C94E2030C940000FC01BB
:1000D000508D418D252F30E0842F90E0821B930BB3
:1000E000541710F0CF96089501970895FC01968952
:1000F0008789981761F0A789AE0FBF2FB11D5B9656
:100100008C9197899F5F9F73978B90E008958FEFF5
:100110009FEF0895FC0196898789981731F08789A8
:10012000E80FF11D838D90E008958FEF9FEF089504
:10013000FC0196892789892F90E0805C9F4F821B64
:1001400091098F7399270895CF93DF93EC01E8818C
:10015000F9810284F385E02D0995EC85FD85868182
:100160008F738683EC85FD8585818F7585838F8967
:100170008E8B1D8ADF91CF910895CF93DF93FC0181
:10018000908D818DC485D585981306C08D818F7D16
:100190008D83DF91CF910895A18DAE0FBF2FB11D3B
:1001A000A55ABF4F9C91818D8F5F8F73818F80E4A3
:1001B0008C83A485B58512969C93908D818D981320
:1001C000E8CF0484F585E02D85818F7D8583E1CF9F
:1001D000DC011C96ED91FC910FB607FE07C025814E
:1001E00025FF04C020911101222321F0248125FD47
:1001F0000C94BD0008950F931F93CF93DF93EC01F0
:1002000081E08D8B988D898D981311C0EC85FD85CB
:10021000848185FF0CC080E48483EC85FD85628346
:1002200081E090E0DF91CF911F910F910895062F0B
:10023000188D1F5F1F73898D811304C0CE010E942A
:10024000E800F9CFE88DEC0FFD2FF11DE55AFF4FC7
:100250000083188FEC85FD85858180628583E0CFE2
:10026000CF93DF93EC018D89882361F0EC85FD85C8
:10027000858185FD03C0848186FD04C0CE010E9476
:10028000E800F4CFDF91CF910895AF92BF92CF9263
:10029000DF92EF92FF920F931F93CF93DF936C0146
:1002A0007B018B01040F151FEB015E01AE18BF0827
:1002B000C017D10759F06991D601ED91FC910190D9
:1002C000F081E02DC6010995892B79F7C501DF91F1
:1002D000CF911F910F91FF90EF90DF90CF90BF9043
:1002E000AF90089581E00895DC01ED91FC910684C2
:1002F000F785E02D23E030E00994FC010190002017
:10030000E9F73197AF01481B590BBC0186E098E330
:100310000C9445018F929F92AF92BF920F931F93BF
:10032000CF93DF93CDB7DEB7A197CDBFDEBF19A2C4
:10033000423008F44AE08E010F5D1F4F842E912C4D
:10034000B12CA12CA50194010E94BA03E62FB9019A
:10035000CA01EA30DCF4E05DD801EE938D01232B75
:10036000242B252B79F790E080E0109719F0CD0130
:100370000E947D01A196CDBFDEBFDF91CF911F917D
:100380000F91BF90AF909F908F900895E95CE4CF5C
:100390007F928F929F92AF92BF92CF92DF92EF9215
:1003A000FF920F931F93CF93DF93EC014A015B0100
:1003B000722E8D89882339F0E881F9810088F189CE
:1003C000E02DCE010995EC88F12C00E0811458EB6A
:1003D00095065BE0A506B10428F0B694A79497941F
:1003E000879402E01D8A1FB7F894CC84DD8460E016
:1003F00074EB84EC94E0A50194010E94BA03D60149
:1004000018962D933C931997EC85FD857782EC85A2
:10041000FD858681897F806C802B8683EC85FD85B8
:100420008581806885839091E2058B8980958923F9
:100430009701220F331FF901EE0DFF1DEC0FFD1F79
:100440009089892B8093E2058685823128F590E09A
:10045000FC01EA5FF74740814F3FF1F0FC01EC50AF
:10046000F847E081B0E2EB9FF0011124FC5F8E5170
:100470009847DC015C91B0E0A0E05F3F29F0CF013C
:100480004096DC01A50FB11D9FB7F89442838C9173
:1004900088608C9345839FBFE20EF31ECE0DDF1D57
:1004A0008F85823188F490E0FC01EA5FF747208174
:1004B0002F3F51F08C509847DC01EC91B0E2EB9F5C
:1004C000F0011124FC5F21831FBFDF91CF911F91A9
:1004D0000F91FF90EF90DF90CF90BF90AF909F90E3
:1004E0008F907F9008951F920F920FB60F92112454
:1004F0008F939F93AF93BF9380910238909103386D
:10050000A0910438B09105380196A11DB11D8093CA
:10051000023890930338A0930438B093053881E0F3
:100520008093960ABF91AF919F918F910F900FBECC
:100530000F901F9018951F920F920FB60F921124D3
:100540002F933F934F935F936F937F938F939F93DB
:10055000AF93BF93EF93FF9386E098E30E94BD00B3
:10056000FF91EF91BF91AF919F918F917F916F918B
:100570005F914F913F912F910F900FBE0F901F9061
:1005800018951F920F920FB60F9211242F938F93ED
:100590009F93EF93FF93E0911238F091133881818C
:1005A00081FD1BC0908180911C388F5F8F732091DB
:1005B0001D38821741F0E0911C38F0E0EA5FF74CFB
:1005C000938F80931C38FF91EF919F918F912F9182
:1005D0000F900FBE0F901F9018958081F4CF88ED7B
:1005E00090E084BF9093610093E0909301068FE0C8
:1005F000809308068091000681628093000680EA5D
:10060000809302068AE080930B0681E08093030AC0
:100610002EEF2093260A2093270A2BE02093000A2E
:100620002FE037E220939C0A30939D0A8093950A2D
:100630001092910A9093900A789440E052EC61E015
:1006400070E086E098E30E94740188E198E80E94D7
:100650007D0189E398E80E947D016091003886E081
:1006600098E30E94FB008CE398E80E947D01C09013
:100670000038D09001380D2C000CEE08FF084AE03D
:10068000C701B601F7FE0DC06DE286E098E30E9457
:10069000FB0066277727CB016C197D098E099F091E
:1006A0004AE00E948A0184E498E80E947D016091FA
:1006B000003870910138072E000C880B990B40E12F
:1006C0000E948A018CE498E80E947D0160910038C4
:1006D00070910138072E000C880B990B48E00E949E
:1006E0008A0184E598E80E947D016091003870914C
:1006F0000138072E000C880B990B42E00E948A01FA
:1007000089E398E80E947D0180910038909101383A
:100710008E37910509F4FFCF0196809300389093AE
:1007200001389BCFE6E0F8E31282138288EE93E073
:10073000A0E0B0E084839583A683B7838CEC97E830
:100740008083918380E098E08487958786E0868720
:1007500087E08787108A8FE0818B8EE0828B81E033
:10076000838B148A158A168A178A108E118E82E15D
:10077000828F0895A1E21A2EAA1BBB1BFD010DC09A
:10078000AA1FBB1FEE1FFF1FA217B307E407F50741
:1007900020F0A21BB30BE40BF50B661F771F881F1D
:1007A000991F1A9469F760957095809590959B01B3
:1007B000AC01BD01CF010895EE0FFF1F0590F4912C
:0807C000E02D0994F894FFCF2D
:1007C80000000000FB004501980076008A00300117
:1007D8007401C801A4007201670004050607050436
:1007E80003020100000102030102030000000000EF
:1007F80001010101010102020202000000001020B3
:1008080040802010080402010102040802040801C3
:100818004153434949205461626C65207E204368F6
:1008280061726163746572204D61702031313131BC
:10083800000D0A002C206465633A20002C206865AE
:10084800783A20002C206F63743A20002C206269CB
:040858006E3A2000D4
:02085C00210079
:00000001FF
