:100000000C943D000C945A000C945A000C945A0025
:100010000C945A000C945A000C945A000C945A00F8
:100020000C945A000C9474050C945A000C945A00C9
:100030000C945A000C945A000C941E060C94C106A1
:100040000C945A000C94F0050C94CA050C945A00B8
:100050000C945A000C945A000C9479070C945A0092
:100060000C945A000C945A000C945A000C945A00A8
:100070000C945A000C945A00F80711241FBECFEFBD
:10008000CDBFDFE3DEBF2AE3A0E0B8E301C01D92ED
:10009000A934B207E1F710E0CDE3D0E004C0219726
:1000A000FE010E94C30BCC33D107C9F70E943E0862
:1000B0000C941B0E0C940000FC01508D418D252FDB
:1000C00030E0842F90E0821B930B541710F0CF96F2
:1000D000089501970895FC0196898789981761F022
:1000E000A789AE0FBF2FB11D5B968C9197899F5F3B
:1000F0009F73978B90E008958FEF9FEF0895FC0119
:1001000096898789981731F08789E80FF11D838DCB
:1001100090E008958FEF9FEF0895FC01968927895D
:10012000892F90E0805C9F4F821B91098F739927E4
:100130000895CF93DF93EC01E881F9810284F38580
:10014000E02D0995EC85FD8586818F738683EC858E
:10015000FD8585818F7585838F898E8B1D8ADF91C3
:10016000CF910895CF93DF93FC01908D818DC4854D
:10017000D585981306C08D818F7D8D83DF91CF91BA
:100180000895A18DAE0FBF2FB11DA55ABF4F9C91F1
:10019000818D8F5F8F73818F80E48C83A485B5857B
:1001A00012969C93908D818D9813E8CF0484F585E9
:1001B000E02D85818F7D8583E1CFDC011C96ED915B
:1001C000FC910FB607FE07C0258125FF04C02091D2
:1001D0001101222321F0248125FD0C94B200089501
:1001E0000F931F93CF93DF93EC0181E08D8B988D5C
:1001F000898D981311C0EC85FD85848185FF0CC025
:1002000080E48483EC85FD85628381E090E0DF916A
:10021000CF911F910F910895062F188D1F5F1F73A7
:10022000898D811304C0CE010E94DD00F9CFE88DD5
:10023000EC0FFD2FF11DE55AFF4F0083188FEC8561
:10024000FD85858180628583E0CFCF93DF93EC01CC
:100250008D89882361F0EC85FD85858185FD03C04E
:10026000848186FD04C0CE010E94DD00F4CFDF91C1
:10027000CF9108958FB7F8946091210A90910B0A5D
:1002800020914B3930914C3940914D3950914E3934
:100290008FBF8EEF861B91FF06C0843020F42F5F46
:1002A0003F4F4F4F5F4F93E0899FF0011124982FEC
:1002B00092959F70E91BF10986958695E80FF11DCF
:1002C000A0E3B3E00E94B00B6E0F7F1F811D911D54
:1002D0000895AF92BF92CF92DF92EF92FF920F9369
:1002E0001F93CF93DF936C017B018B01040F151FCC
:1002F000EB015E01AE18BF08C017D10759F0699134
:10030000D601ED91FC910190F081E02DC601099597
:10031000892B79F7C501DF91CF911F910F91FF9044
:10032000EF90DF90CF90BF90AF90089581E0089557
:100330000F9391E0909373391092203960931E3996
:1003400070931F3940931D3920931C391092213925
:100350001092223900931B39880F80931A3993E049
:1003600024E080911D39882331F090937439809175
:100370001A398E7F09C080911C39882341F020935F
:10038000743980911A3981608093A70808C08091E0
:100390001D39811104C080911C39882331F380916B
:1003A00020398823E1F3809120398330D1F2809184
:1003B0001C39882321F0809122390F910895809172
:1003C0002039823031F0853031F0813031F480E0F5
:1003D000F4CF81E0F2CF83E0F0CF84E0EECF0F9353
:1003E000809174398130A1F480917339811112C0E8
:1003F00001E020E04091973966E779E380919639F2
:100400000E94980110927539109297390F910895B2
:1004100080E0F8CF81E0F6CFEF92FF920F931F9329
:10042000CF93DF93D82FE92EC62F80913F3A809348
:10043000963910927539109297390E94EF01811107
:1004400036C080913F3A23E539E320934F3930930A
:10045000503990917439913031F5909173399111EF
:1004600024C001E02C2F40E070E060E00E94980181
:10047000C82F10925239C0935139FD2E0D2F1E2DC9
:10048000802F8F198C17A0F48091473A9091483AA9
:10049000DC01ED91FC910680F781E02D0995F801D2
:1004A00081938F01EDCFC0E0E4CFC1E0E2CFC0E0A7
:1004B0008C2FDF91CF911F910F91FF90EF900895B6
:1004C000E0EAF8E091859066918792E09093743924
:1004D0008093143910921339089581E08093133971
:1004E000109214399091AB0891FF0EC010921839F8
:1004F000F0E0E0E009958093173985E08093743946
:1005000083E08093AA0808951092193980931639D0
:1005100086E0F4CF0895E091523980915139E8177F
:1005200030F4F0E0ED5AF64C808190E008958FEFC2
:100530009FEF089590915239809151392FEF3FEFFD
:10054000981748F4E92FF0E0ED5AF64C208130E09E
:100550009F5F90935239C9010895809151399091CC
:100560005239891B990B0895CF92DF92EF92FF9237
:100570000F931F93CF93DF937C018A01EB016B01F3
:10058000C40ED51ECC15DD0551F06991D701ED9152
:10059000FC910190F081E02DC7010995F3CFC801CE
:1005A000DF91CF911F910F91FF90EF90DF90CF904F
:1005B000089520919739203240F021E030E0FC018D
:1005C0002283338390E080E0089580917539E82F8D
:1005D000F0E0EA58F64C60838F5F80937539809322
:1005E000973981E090E008954F925F926F927F92E9
:1005F0008F929F92AF92BF92CF92DF92EF92FF9233
:100600000F931F9350E040E0C12CD12C7601882439
:100610008A94982CA82CB12C80E090E0DC01423424
:10062000510599F19A01220F331F220F331FF9014F
:10063000E95FF74C40805180628073804814590410
:100640006A047B0424F480809180A280B380F90145
:10065000E95FF74C4080518062807380C414D504F8
:10066000E604F70424F4C080D180E280F380295F9F
:10067000374CF9010081118122813381800F911F54
:10068000A21FB31F4F5F5F4FCACF88199909AA09EC
:10069000BB09BC01CD016C197D098E099F0926E0BB
:1006A00095958795779567952A95D1F71F910F9125
:1006B000FF90EF90DF90CF90BF90AF909F908F9082
:1006C0007F906F905F904F900895DC01ED91FC91C9
:1006D0000684F785E02D23E030E00994FC010190C9
:1006E0000020E9F73197AF01481B590BBC0188E99D
:1006F00099E30C9469018F929F92AF92BF920F93EE
:100700001F93CF93DF93CDB7DEB7A197CDBFDEBFE9
:1007100019A2423008F44AE08E010F5D1F4F842E6B
:10072000912CB12CA12CA50194010E946F0BE62FF6
:10073000B901CA01EA30DCF4E05DD801EE938D0125
:10074000232B242B252B79F790E080E0109719F0CC
:10075000CD010E946E03A196CDBFDEBFDF91CF9188
:100760001F910F91BF90AF909F908F900895E95C7B
:10077000E4CFCF92DF92EF92FF92CF93DF936B01A2
:100780007C016DE288E999E30E94F000EC016627A4
:100790007727CB016C197D098E099F094AE00E94D9
:1007A0007B038C0F9D1FDF91CF91FF90EF90DF9027
:1007B000CF900895CF93DF930E946E03EC018AE9F6
:1007C0009CE90E946E038C0F9D1FDF91CF910895CD
:1007D0004F925F926F927F928F929F92AF92BF9251
:1007E000CF92DF92EF92FF926B017C01AC019B01F3
:1007F0000E94160E882381F08DE99CE9FF90EF900E
:10080000DF90CF90BF90AF909F908F907F906F9030
:100810005F904F900C946E0346015701E894B7F82F
:100820002FEF3FEF4FE75FE7C501B4010E94160EBF
:1008300081110DC02FEF3FEF4FE75FE7C501B40116
:100840000E94450C18161CF481EA9CE9D7CF2FEFC3
:100850003FEF4FE75FE4C701B6010E94A40D1816F1
:100860001CF485EA9CE9CACF2FEF3FEF4FE75FEC1E
:10087000C701B6010E94450C87FDF3CF20E030E0B0
:10088000A901C701B6010E94450CB12CA12C87FF1C
:100890000AC06DE288E999E30E94F0005C01F7FA72
:1008A000F094F7F8F0942AE037ED43EA5BE3C701F0
:1008B000B6010E94D90B2B013C010E94C30C6B01B5
:1008C0007C010E94F20C9B01AC01C301B2010E94A9
:1008D000D80B2B013C014AE0C701B6010E947B0303
:1008E0007C01EA0CFB1C89EA9CE90E946E03E80E7D
:1008F000F91E20E030E040E251E4C301B2010E9461
:10090000A90D2B013C010E94C30C4B01B12CA12C61
:100910004AE0C501B4010E947B03E80EF91EC5013F
:10092000B4010E94F20C9B01AC01C301B2010E9410
:10093000D80B20E030E040E251E40E94A90D0E9473
:10094000C30C90E080E04AE00E947B038E0D9F1D67
:10095000FF90EF90DF90CF90BF90AF909F908F90DF
:100960007F906F905F904F9008958F929F92AF927B
:10097000BF92DF92EF92FF920F931F93CF93DF937B
:10098000EC014A015B01E22E8D89882339F0E88170
:10099000F9810088F189E02DCE0109950C8910E0DC
:1009A000F12C811438EB93063BE0A306B10430F040
:1009B000B694A7949794879442E0F42E1D8AD09021
:1009C000251160E078E689E899E0A50194010E948C
:1009D0006F0BAD2DDD0CBB0BBC5F0E94BB0BDC01B4
:1009E000CB012BE0B595A795979587952A95D1F7DB
:1009F0002FB7F894EC85FD85009761E0A607B10557
:100A000024F08FEF9FEFA0E0B0E080879187EC8526
:100A1000FD85E782EC85FD858681897F806C8F2945
:100A20008683EC85FD858581806885839091E205CC
:100A30008B8980958923A801440F551FFA01E00F87
:100A4000F11FEC0FFD1F9089892B8093E2058685AD
:100A5000823128F590E0FC01E25AF34630813F3FB5
:100A6000F1F0FC01E45BF346E081A0E2EA9FF001D3
:100A70001124FC5F865C9346DC016C91B0E0A0E041
:100A80006F3F29F0CF014096DC01A60FB11D9FB743
:100A9000F89432838C9188608C9335839FBF040FC8
:100AA000151FC00FD11F8F85823188F490E0FC01A3
:100AB000E25AF34630813F3F51F0845B9346DC01BC
:100AC000EC91B0E2EB9FF0011124FC5F31832FBF6A
:100AD000DF91CF911F910F91FF90EF90DF90BF902A
:100AE000AF909F908F9008951F920F920FB60F9224
:100AF00011242F933F934F935F936F938F939F9303
:100B0000AF93BF938091473990914839A09149396B
:100B1000B0914A3940914539509146399A01205D4A
:100B20003C4F283E63E0360728F0285E33400196AC
:100B3000A11DB11D20934539309346398093473923
:100B400090934839A0934939B0934A3980914B39F1
:100B500090914C39A0914D39B0914E390196A11D1B
:100B6000B11D80934B3990934C39A0934D39B0937C
:100B70004E3982E080930B0ABF91AF919F918F9184
:100B80006F915F914F913F912F910F900FBE0F90FA
:100B90001F9018951F920F920FB60F9211242F934A
:100BA0003F934F935F936F937F938F939F93AF93F5
:100BB000BF93EF93FF9388E999E30E94B200FF91FE
:100BC000EF91BF91AF919F918F917F916F915F91C5
:100BD0004F913F912F910F900FBE0F901F9018953E
:100BE0001F920F920FB60F9211242F938F939F9302
:100BF000EF93FF93E091A439F091A539818181FDB4
:100C00001BC090818091AE398F5F8F732091AF3977
:100C1000821741F0E091AE39F0E0E856F64C938F40
:100C20008093AE39FF91EF919F918F912F910F900B
:100C30000FBE0F901F9018958081F4CF1F920F92D6
:100C40000FB60F9211242F933F934F935F936F939F
:100C50007F938F939F93AF93BF93CF93EF93FF9324
:100C6000C091AB08C2FF0AC010921939109218390E
:100C70001092173984E00E94600212C0C6FF2DC096
:100C800080911639813041F48091193990E0F0E07B
:100C9000E0E0099510921639C0FF14C00E946D0261
:100CA000FF91EF91CF91BF91AF919F918F917F91E4
:100CB0006F915F914F913F912F910F900FBE0F90C9
:100CC0001F90189580E48093AB0881E00E94600239
:100CD0008091AB0885FFE4CFE1CFC7FF50C0C3FFD1
:100CE00008C010921939109218391092173983E000
:100CF000C2CF8091A90880668093A9088091AB0833
:100D000081FF26C080911839882349F08091AB0873
:100D100084FF05C082E08093AA0881E0ACCF909167
:100D2000183980911739981778F4E0911839F0E064
:100D300080818093AD08809118398F5F8093183936
:100D400083E08093AA08ACCF82E08093AA0893CF77
:100D50009091193980911539981760F48091AD08F8
:100D6000E0911939F0E08083809119398F5F809389
:100D70001939E6CF86E08093AA0882E07CCF85E02F
:100D80007ACF1F920F920FB60F9211242F933F9399
:100D90008F939F93EF93FF938091A508982F9C705A
:100DA000C9F08091A50894E082FF93E090932039E8
:100DB0008093A50881E08093743910927339FF9174
:100DC000EF919F918F913F912F910F900FBE0F90B8
:100DD0001F90189586FF4CC020911D3990911C39A9
:100DE0008091A50884FF10C080911B39882351F0A1
:100DF00083E08093A40885E08093203910927339B2
:100E000081E031C081E0F5CF80912139821790F4E3
:100E1000E091213980911E3990911F39E80FF92F07
:100E2000F11D80818093A808809121398F5F809384
:100E30002139C5CF80912239891748F484E0809305
:100E4000743980911A3981608093A708B8CF809156
:100E50001B39882359F083E08093A40881E08093B4
:100E600020391092733980937439A9CF81E0F4CF7F
:100E700087FF3DC09091223980911C399817D8F492
:100E80008091A808E091223920914F393091503952
:100E9000E20FF32FF11D8083809122398F5F8093C1
:100EA000223990911C39809122398917C0F482E04F
:100EB0008093A40884CF80911B39882371F087E048
:100EC0008093A40882E0809320391092733981E0E6
:100ED0008093743910921C3972CF85E0F1CF8091E4
:100EE0001B39882311F087E0B7CF85E0B5CF86E0C6
:100EF00083CF1F920F920FB60F9211240F931F935F
:100F00002F933F934F935F936F937F938F939F9311
:100F1000AF93BF93EF93FF930E943A010091033880
:100F2000109104382091053830910638601B710B00
:100F3000820B930B60932339709324398093253966
:100F40009093263981E08093050680910138909135
:100F500002388134910509F041C010920138109295
:100F600002388091100690911106A0911206B0915E
:100F7000130697FF39C09058AA27BB27E091013884
:100F8000F0910238EE0FFF1FEE0FFF1FE95FF74CE5
:100F900080839183A283B3830E943A0160930338D4
:100FA00070930438809305389093063880910A0630
:100FB000816080930A06FF91EF91BF91AF919F915D
:100FC0008F917F916F915F914F913F912F911F91E1
:100FD0000F910F900FBE0F901F9018950196809360
:100FE000013890930238BDCF9058AF4FBF4FC6CF56
:100FF000E8E9F9E31282138248EE53E060E070E022
:10100000448355836683778384E79CE98083918357
:1010100080E098E08487958786E0868787E08787E9
:10102000108A8FE0818B8EE0828B81E0838B148A23
:10103000158A168A178A108E118E82E1828FA3E399
:10104000BAE312961D921C92139714964D935D93DA
:101050006D937C9317978EE89CE98D939C931197E1
:10106000EFE3FAE381E68083A087B18711821282E1
:10107000138214821582168217820895CF93DF930C
:1010800000D01F92CDB7DEB788ED90E084BF90937B
:10109000610003E0009301068FE0809308068091D1
:1010A000000681628093000680EA809302068AE04F
:1010B00080930B0611E01093030A8EEF8093260AAB
:1010C0008093270A8BE08093000A80910A0A82604D
:1010D00080930A0A789440E052EC61E070E088E97D
:1010E00099E30E9465038BEA9CE90E94DA0310935E
:1010F00000061092010684EA8093020682E0809343
:10110000080687E1809309068DE480930C0682E44B
:1011100080930D0680ED80930A0681E880930B068C
:101120001093040680910A06816080930A0610924B
:101130005239109251391092753910929739809125
:101140007439811114C000932604109374391092DD
:1011500022391092213910927339109220398FE57B
:101160008093A60881EC8093A3081093A508809132
:101170003F3A809396390E94EF01811133C061E0BC
:10118000CE0101960E940C02898187FFF8CF63E0AF
:10119000CE0101960E940C028A8190E1899F900104
:1011A00011248B8190E044E0959587954A95E1F76D
:1011B000820F931F8093403A9093413A61E0CE01B1
:1011C00001960E940C02898187FFF8CF61E0CE0171
:1011D00001960E940C02898190E095958795837015
:1011E0008093423A82EC9CE90E94DA030E943A0121
:1011F0004B015C0198EEC92E93E0D92EE12CF12C25
:101200000E943A01681979098A099B09683E73406E
:1012100081059105A8F3A1E0CA1AD108E108F108F7
:10122000B8EE8B0EB3E09B1EA11CB11CC114D104FF
:10123000E104F10429F70E94F40260933B397093B2
:101240003C398AEC9CE90E94DA0384E6C82ED12C52
:10125000E12CF12C0E943A01AB01BC018091413993
:1012600090914239A0914339B09144398C509E4FAE
:10127000AF4FBF4F84179507A607B70708F049C1BE
:101280000E943A014B015C010E94F40260933D39D7
:1012900070933E3980933F399093403920913B3988
:1012A00030913C39621B730B810991090E94F40C47
:1012B00026E636EE4AEB53E40E944A0C6093373937
:1012C000709338398093393990933A392B013C0126
:1012D000E89477F820E030E040E05FE3C301B2013A
:1012E0000E94A40D1816BCF51092353910923639AB
:1012F00020E030E040E050E4C301B2010E94450C20
:1013000087FFE0C180913339909134390196809301
:10131000333990933439609133397091343990E096
:1013200080E00E94F20C20E030E04AE755E40E94A1
:10133000A40D181684F482ED9CE90E94DA038091D2
:101340003D3990913E3980933B3990933C391092CE
:1013500033391092343920E030E040E05FE3C301DC
:10136000B2010E94450C18169CF02AE037ED43E2CA
:101370005CE3C301B2010E94A40D18164CF48091E5
:1013800035399091363901968093353990933639B5
:10139000609135397091363990E080E00E94F20C0E
:1013A00020E030E04AEF54E40E94A40D1816A4F4A3
:1013B00010923539109236391092333910923439EF
:1013C00080913D3990913E3980933B3990933C39DF
:1013D00088ED9CE90E94DA032DEC3CEC43E252E4F8
:1013E00060913739709138398091393990913A3913
:1013F0000E94A90D20E030EF4FEF54E40E94D90B7A
:1014000020E030E0A9010E94D90B0E94C30C8B019F
:1014100090E080E00E94F20C2FE133E14BE755E4CD
:101420000E94A40D181614F401EB1FE0B80190E01F
:1014300080E00E94F20C20E73DEF4BEA52E40E946C
:10144000450C87FF02C005E510E08091403A90917D
:10145000413A0817190791F1011580E1180770F555
:101460006091423A90E1699FB0011124612B809113
:10147000473A9091483A20913F3A209396391092FA
:10148000753910929739DC01ED91FC910190F08152
:10149000E02D09958091473A9091483ADC01ED9111
:1014A000FC910190F081E02D602F09950E94EF01E1
:1014B000811104C00093403A1093413AB80190E082
:1014C00080E00E94F20C20E030EC4CE454E40E94F6
:1014D0004A0C60932F39709330398093313990934F
:1014E00032390E943A01681979098A099B09609387
:1014F0002B3970932C3980932D3990932E390E947B
:101500003A01609341397093423980934339909303
:1015100044398FB7F89440914739509148396091D8
:10152000493970914A398FBF809127399091283974
:10153000A0912939B0912A398C509E4FAF4FBF4F9F
:1015400084179507A607B70708F084CE83EE9CE9B9
:101550000E946E0360913D3970913E3980913F3910
:101560009091403997FFB3C00E94B90389EE9CE97E
:101570000E946E0320913B3930913C3960913D3996
:1015800070913E3980913F3990914039621B730BC5
:101590008109910997FF9FC00E94B90381EF9CE9DF
:1015A0000E946E03609137397091383980913939D2
:1015B00090913A390E94E80387EF9CE90E946E03FC
:1015C00060913739709138398091393990913A3931
:1015D0000E94BC0C9B01AC012E5C3F4F4F4F5F4FF4
:1015E000AFEFBFE00E94B00BA70196010E94910BE4
:1015F000CA01B901882799274AE00E947B038EEF30
:101600009CE90E946E0360912F397091303980916E
:101610003139909132390E94E80385E09DE90E94BA
:101620006E0360912339709124398091253990910E
:1016300026394AE00E947B038EE09DE90E946E03FA
:1016400060912B3970912C3980912D3990912E39E0
:101650004AE00E947B0388E19DE90E946E0360914D
:1016600035397091363990E080E04AE00E947B0382
:1016700081E29DE90E946E036091333970913439A3
:1016800090E080E04AE00E947B036AE088E999E309
:101690000E94F0008AE99CE90E946E032FB7F8943B
:1016A0008091473990914839A0914939B0914A3990
:1016B0002FBF8093273990932839A0932939B0936D
:1016C0002A39C8CD109233391092343924CE4AE0E9
:1016D0000E947B034BCF4AE00E947B035FCFA1E2D5
:1016E0001A2EAA1BBB1BFD010DC0AA1FBB1FEE1F9C
:1016F000FF1FA217B307E407F50720F0A21BB30BE7
:10170000E40BF50B661F771F881F991F1A9469F762
:1017100060957095809590959B01AC01BD01CF01BE
:101720000895052E97FB1EF400940E94A80B57FD08
:1017300007D00E946F0B07FC03D04EF40C94A80B4B
:1017400050954095309521953F4F4F4F5F4F0895ED
:1017500090958095709561957F4F8F4F9F4F08951D
:101760000E94C90BA59F900DB49F900DA49F800D62
:10177000911D11240895B7FF0C94B00B0E94B00B7B
:10178000821B930B0895EE0FFF1F0590F491E02D3F
:101790000994A29FB001B39FC001A39F700D811D4A
:1017A0001124911DB29F700D811D1124911D08956A
:1017B0005058BB27AA270E94F00B0C946A0D0E9478
:1017C0005C0D38F00E94630D20F039F49F3F19F44E
:1017D00026F40C94590D0EF4E095E7FB0C94530D90
:1017E000E92F0E947B0D58F3BA176207730784072D
:1017F000950720F079F4A6F50C949D0D0EF4E09574
:101800000B2EBA2FA02D0B01B90190010C01CA01BA
:10181000A0011124FF27591B99F0593F50F4503E65
:1018200068F11A16F040A22F232F342F4427585F57
:10183000F3CF469537952795A795F0405395C9F76F
:101840007EF41F16BA0B620B730B840BBAF0915027
:10185000A1F0FF0FBB1F661F771F881FC2F70EC0C6
:10186000BA0F621F731F841F48F487957795679599
:10187000B795F7959E3F08F0B0CF9395880F08F085
:101880009927EE0F9795879508950E942F0D08F4DC
:1018900081E008950E945E0C0C946A0D0E94630D15
:1018A00058F00E945C0D40F029F45F3F29F00C9441
:1018B000530D51110C949E0D0C94590D0E947B0DEB
:1018C00068F39923B1F3552391F3951B550BBB276F
:1018D000AA2762177307840738F09F5F5F4F220FB4
:1018E000331F441FAA1FA9F335D00E2E3AF0E0E8AB
:1018F00032D091505040E695001CCAF72BD0FE2FF5
:1019000029D0660F771F881FBB1F26173707480788
:10191000AB07B0E809F0BB0B802DBF01FF27935840
:101920005F4F3AF09E3F510578F00C94530D0C94A4
:101930009E0D5F3FE4F3983ED4F3869577956795C7
:10194000B795F7959F5FC9F7880F911D9695879575
:1019500097F90895E1E0660F771F881FBB1F621794
:1019600073078407BA0720F0621B730B840BBA0B52
:10197000EE1F88F7E09508950E94C30C6894B1119A
:101980000C949E0D08950E94830D88F09F5798F047
:10199000B92F9927B751B0F0E1F0660F771F881F74
:1019A000991F1AF0BA95C9F714C0B13091F00E948E
:1019B0009D0DB1E008950C949D0D672F782F882719
:1019C000B85F39F0B93FCCF3869577956795B395B5
:1019D000D9F73EF490958095709561957F4F8F4F24
:1019E0009F4F0895E89409C097FB3EF49095809529
:1019F000709561957F4F8F4F9F4F9923A9F0F92FD5
:101A000096E9BB279395F695879577956795B79552
:101A1000F111F8CFFAF4BB0F11F460FF1BC06F5F38
:101A20007F4F8F4F9F4F16C0882311F096E911C04A
:101A3000772321F09EE8872F762F05C0662371F06B
:101A400096E8862F70E060E02AF09A95660F771F7F
:101A5000881FDAF7880F9695879597F90895990F5B
:101A60000008550FAA0BE0E8FEEF16161706E80768
:101A7000F907C0F012161306E407F50798F0621B89
:101A8000730B840B950B39F40A2661F0232B242B5E
:101A9000252B21F408950A2609F4A140A6958FEF7D
:101AA000811D811D089597F99F6780E870E060E0CF
:101AB00008959FEF80EC089500240A9416161706E7
:101AC00018060906089500240A941216130614062F
:101AD00005060895092E0394000C11F4882352F092
:101AE000BB0F40F4BF2B11F460FF04C06F5F7F4F4A
:101AF0008F4F9F4F089557FD9058440F551F59F031
:101B00005F3F71F04795880F97FB991F61F09F3FEA
:101B100079F087950895121613061406551FF2CF13
:101B20004695F1DF08C0161617061806991FF1CF63
:101B300086957105610508940895E894BB2766278A
:101B40007727CB0197F908950E942F0D08F48FEFA6
:101B500008950E94BC0D0C946A0D0E945C0D38F033
:101B60000E94630D20F0952311F00C94530D0C94FA
:101B7000590D11240C949E0D0E947B0D70F3959FBE
:101B8000C1F3950F50E0551F629FF001729FBB2774
:101B9000F00DB11D639FAA27F00DB11DAA1F649F10
:101BA0006627B00DA11D661F829F2227B00DA11DC3
:101BB000621F739FB00DA11D621F839FA00D611D49
:101BC000221F749F3327A00D611D231F849F600D6A
:101BD000211D822F762F6A2F11249F5750409AF093
:101BE000F1F088234AF0EE0FFF1FBB1F661F771F1F
:101BF000881F91505040A9F79E3F510580F00C94EA
:101C0000530D0C949E0D5F3FE4F3983ED4F38695FC
:101C100077956795B795F795E7959F5FC1F7FE2B89
:101C2000880F911D9695879597F908950E942F0D1D
:0A1C3000880B990B0895F894FFCF7C
:101C3A00040506070504030201000001020301026C
:101C4A000300000000000101010101010202020279
:101C5A000000000010204080201008040201010248
:101C6A0004080204080100000000F00069018D0068
:101C7A006B007F0025016503B504990096015C009D
:101C8A0000000000D902B402AD029A028B028A0255
:101C9A000D0A006E616E00696E66006F7666002E30
:101CAA0000415454696E7931363236205374726168
:101CBA00696E2074657374006D63702073657400B7
:101CCA00416C6C2073657400757070657220746164
:101CDA007265206472696674004144433A200009BF
:101CEA00546172653A2000096B473A200009444161
:101CFA00433A200009566F6C3A2000094144435F79
:101D0A00543A2000094D61696E5F543A2000094433
:101D1A00726966743A2000094472696674206775AC
:061D2A006172643A200022
:00000001FF
